:100000000C9411020C9430020C9430020C943002C7
:100010000C9430020C9430020C9430020C94300298
:100020000C9430020C9430020C9430020C94300288
:100030000C9430020C9430020C9430020C94300278
:100040000C9430020C9430020C9430020C94300268
:100050000C9430020C9430020C9430020C94300258
:100060000C9430020C94A7150C9430020C943002BE
:100070000C9430020C9430020C9430020C94300238
:100080000C9430020C9430020C9430020C94300228
:100090000C94FA150C9430020C9430020C9430023B
:1000A0000C9430020C9430020C9430020C94300208
:1000B0000C9430020C9430020C9430020C947118A1
:1000C0000C9430020C9430020C94300284138D1383
:1000D00090139313861386139613A613AD13B413BC
:1000E000B8138A134D45343035204C6162203120DD
:1000F0005374617274696E672050726F6772616DBC
:10010000004D45343035204C6162203120556E6DF4
:100110006F6469666965642050726F6772616D20F3
:1001200056302E303120004170722020362032307F
:1001300031360053797374656D2074696D653A20AA
:10014000002C20486561703A20002C204F43523526
:10015000413A20002020683A202020202048414CAD
:100160005021002020613A20202020205072696E0A
:10017000742074686520412F4420436F6E76657249
:1001800074657200202043746C2D433A20526573CD
:10019000657420746865204156520020206E3A2014
:1001A00020202020456E7465722061206E756D627E
:1001B0006572202864656D6F29002020643A202034
:1001C000202020537461636B2064756D7020666F0E
:1001D00072207461736B73002020733A20202020FA
:1001E0002056657273696F6E20616E64207365744A
:1001F000757020696E666F726D6174696F6E002034
:1002000020743A202020202053686F77207468657E
:100210002074696D65207269676874206E6F77005D
:100220004D45343035204C6162203120556E6D6F64
:100230006469666965642050726F6772616D2056EB
:10024000302E303120002068656C7000496C6C6580
:1002500067616C20737461746521205265736574E5
:1002600074696E6720415652003C696E76616C6914
:10027000642063686172202200223E004E756D6228
:10028000657220656E74657265643A2000223A20BA
:100290005754463F00526573657474696E67204118
:1002A000565200456E74657220646563696D616CB9
:1002B000206E756D65726963206469676974732C5B
:1002C000207468656E2052455455524E206F72203E
:1002D00045534300507265737320276827206F725F
:1002E00020273F2720666F722068656C70004144AC
:1002F0004D5558203A200020414443535241203A62
:1003000020004E6F207368617265642064617461BF
:10031000206974656D7320746F207072696E74004B
:100320002D2D2D2D20202020202020202020202099
:100330002D2D2D2D202020202D2D2D2D2D2D2D2D21
:100340002D2D0053686172652F51756575652020EC
:100350002020205479706520202020467265652F6A
:10036000546F74616C004552524F52206372656144
:1003700074696E67207461736B2022005461736B23
:100380002022002220637265617465642C207374DE
:1003900061636B206174203078005461736B3A2084
:1003A000005461736B3A2049444C450049444C4524
:1003B000090930092D09002F0009092D002D2D2DC7
:1003C0002D09092D2D2D2D092D2D2D2D2D00092D1A
:1003D0002D2D2D2D2D2D2D2D2D00092D2D2D2D00CB
:1003E0004E616D6509095072692E09537461746517
:1003F0000009467265652F546F74616C000952756F
:100400006E73005461736B090920200920000953A1
:100410007461636B00090009002F000900090020C6
:10042000200011241FBECFEFD1E2DEBFCDBF12E00E
:10043000A0E0B2E0E0E4FFE300E00BBF02C0079001
:100440000D92AA3BB107D9F71AE1AAEBB2E001C0BD
:100450001D92A137B107E1F70E94121D0C949E1F57
:100460000C9400000F931F93CF93DF93EC010E9435
:10047000B90E85E292E099838883DF91CF911F9135
:100480000F9108950F931F93CF93DF93EC016BE0CF
:100490008E819F810E9477138C0160E272E00E943E
:1004A00032136BE0C8010E9477138C0166E472E09E
:1004B0000E94321366E0C8010E9477136BE08E81C0
:1004C0009F810E9477138C016FEF71E00E943213BD
:1004D00066E0C8010E9477136BE08E819F810E94C5
:1004E00077138C0168ED71E00E94321366E0C80159
:1004F0000E9477136BE08E819F810E9477138C019D
:100500006AEB71E00E94321366E0C8010E94771323
:100510006BE08E819F810E9477138C016BE971E003
:100520000E94321366E0C8010E9477136BE08E814F
:100530009F810E9477138C0164E871E00E9432135E
:1005400066E0C8010E9477136BE08E819F810E9454
:1005500077138C0163E671E00E94321366E0C801F4
:100560000E9477136BE08E819F810E947713EC01CC
:1005700064E571E00E94321366E0CE01DF91CF9115
:100580001F910F910C9477138F929F92AF92BF920D
:10059000CF92DF92EF92FF920F931F93CF93DF934F
:1005A00000D000D000D0CDB7DEB78C0119821A82FE
:1005B0001B821C821E821D82C0902801D0902901BE
:1005C0000E9434075C01CE0101960E9463124C0127
:1005D00066E0F801868197810E9477136BE00E94A4
:1005E00077137C0161E071E00E9432136BE0C70178
:1005F0000E9477137C0167E271E00E94321366E08B
:10060000C7010E9477136BE00E9477137C0163E3BC
:1006100071E00E943213B401C7010E9402126BE024
:100620000E9477137C0161E471E00E943213B501EE
:10063000C7010E94BC137C016DE172E00E9432137D
:1006400048E357E160E070E0C7010E94F6136BE0F9
:100650000E9477137C016AE471E00E943213B601B4
:10066000C7010E94BC1366E00E94771366E00E94F7
:100670007713F801868197810E94B41066E0F80133
:10068000868197810E947713F801868197810E9465
:10069000740E26960FB6F894DEBF0FBECDBFDF9165
:1006A000CF911F910F91FF90EF90DF90CF90BF906F
:1006B000AF909F908F900895CF93DF93CDB7DEB723
:1006C00027970FB6F894DEBF0FBECDBF8C011982FD
:1006D0001A821B821C821E821D826BE0DC01169630
:1006E0008D919C9117970E9477137C0164ED72E0C5
:1006F0000E94321366E0C7010E947713C12CD12CEF
:100700007601F8018485882309F45AC0813009F004
:10071000A0C0F80186819781DC01ED91FC910480F5
:10072000F581E02D0995882309F403C1F80186813C
:100730009781DC01ED91FC910680F781E02D099510
:10074000282F80ED820F8A3008F4C4C02A3009F4C3
:10075000B9C02D3019F02B3109F095C066E0D801F1
:1007600016968D919C9117970E9477136BE00E94CB
:1007700077135C016CE772E00E943213B701A601A7
:10078000C5010E94F61366E00E94771360E0C8017D
:100790000E946F0FF80186859785A089B18901961F
:1007A000A11DB11D86879787A08BB18B61E070E09A
:1007B00080E090E00E946A0BF80184858111A6CF49
:1007C00086819781DC01ED91FC910480F581E02D1B
:1007D00009958823F9F2F80186819781DC01ED9172
:1007E000FC910680F781E02D0995282F883609F4C1
:1007F0001FC10CF4F1C0833709F4EAC0843709F44F
:10080000D9C08E3609F4BFC0F801A680B780D501E3
:10081000ED91FC910280F381E02D62E2C5012F830E
:100820000995D501ED91FC910280F381E02D2F8196
:10083000622FC50109956BE0C5010E9477135C0129
:100840006DE872E00E94321366E0C5010E947713E2
:10085000A1CF6BE0868197810E9477138C016CE4B5
:1008600072E00E94321366E0C8010E9477132BE009
:1008700088E190E00FB6F894A895809360000FBED1
:1008800020936000FFCF6BE0F801868197812F8372
:100890000E9477135C0169E672E00E943213D50171
:1008A000ED91FC910280F381E02D2F81622FC50133
:1008B00009956BE0C5010E94771369E772E00E9419
:1008C000321368CF6FE172E0F801868197810E9450
:1008D000321360CFF80186819781DC01ED91FC91A4
:1008E0000280F381E02D622F2F830995CC0CDD1C53
:1008F000EE1CFF1CB701A601440F551F661F771F92
:10090000440F551F661F771F4C0D5D1D6E1D7F1D0B
:100910002F81C22EDD24C7FCD094B0E3CB1AD108BE
:10092000EE24D7FCE094FE2CC40ED51EE61EF71E66
:1009300031CF8091BA029091BB02DC01ED91FC9124
:100940000480F581E02D0995882309F423CFD8018F
:100950001696ED91FC9117970190F081E02DA28001
:10096000B3808091BA029091BB02DC01ED91FC91C1
:100970000680F781E02D0995682FF801868197811F
:10098000F501099507CF6BE0F801868197810E94F8
:1009900077137C0163EA72E00E94321366E0C701BC
:1009A0000E94771361E0C8010E946F0FC12CD12C07
:1009B0007601F0CECE0101960E946312BC01F801CF
:1009C000868197810E94021266E00E947713E2CE30
:1009D000C8010E94C402DECE8F3351F1843601F18A
:1009E000833009F011CF6BE0D80116968D919C9160
:1009F00017970E9477138C0165E972E00E94321309
:100A000066E0C8010E9477132BE088E190E00FB602
:100A1000F894A895809360000FBE20936000FFCFEC
:100A2000D80116968D919C9117970E94CE0FB2CE49
:100A3000C8010E944202AECECF93DF9300D000D017
:100A4000CDB7DEB78C010E94630969837A838B83FB
:100A50009C8382E090E00E94FB127C01F801668199
:100A600077810E94BC0580E18DB981E3809390007D
:100A70008BE0809391003AE0832E912CA12CB12C35
:100A800008C044E650E060E070E0CE0101960E94AC
:100A9000030B4AE060E0C7010E9400069695879527
:100AA0009695879590939B0080939A00F8016685B0
:100AB0007785808991896F5F7F4F8F4F9F4F6687C2
:100AC0007787808B918BA50194010E94E81D672B8D
:100AD000682B692BB1F6B701F801868197810E94D6
:100AE0003C0660E0C7010E94DD056C01F8016680EC
:100AF000778069E272E0C3010E943213B601C3013C
:100B00000E94BC1366E00E947713B701F80186814A
:100B100097810E943C0661E0C7010E94DD056C01DF
:100B2000F801668077806FE272E0C3010E943213A1
:100B3000B601C3010E94BC1366E00E947713B7019F
:100B4000F801868197810E943C0666E0F801868163
:100B500097810E94771395CF0F931F93CF93DF93C5
:100B6000EC010E94B90E89E392E099838883DF91BA
:100B7000CF911F910F910895CF93DF93FC01718363
:100B8000608320917A00256820937A0020917C0070
:100B9000206420937C00C081D181209759F06DE3BF
:100BA00072E0CE010E94321366E0CE01DF91CF9158
:100BB0000C947713DF91CF910895962F97708091C1
:100BC0007C00887F80937C0080917C00892B8093BF
:100BD0007C0080917A00806480937A0080917A0012
:100BE00086FDFCCF8091BC02681719F06093BC02AF
:100BF000E6CF809178002091790090E0922B0895C3
:100C0000BF92CF92DF92EF92FF920F931F93CF93F9
:100C1000DF937C01B62EC42ED12C0E94DD058C0101
:100C2000C0E0D0E001C08C012196CC16DD06ACF00E
:100C30006B2DC7010E94DD05800F911F8017910762
:100C400090F7F701E080F18060E572E0C7010E9453
:100C5000321366E0C7010E947713C801BE010E94EB
:100C6000D41DCB01DF91CF911F910F91FF90EF9099
:100C7000DF90CF90BF900895EF92FF920F931F9354
:100C8000CF93DF93EC01F0907A00E0907C0060E07D
:100C90000E9477136BE00E9477138C016EEE72E076
:100CA0000E9432136E2DC8010E943E146BE00E9418
:100CB00077138C0167EF72E00E9432136F2DC80129
:100CC0000E943E1462E00E94771366E00E94771350
:100CD000CE01DF91CF911F910F91FF90EF9008957A
:100CE0000F931F93CF93DF93EC010E945D098091D6
:100CF000BD02811121C087EC92E09093C3028093E2
:100D0000C2021092C5021092C40287E397E1909349
:100D1000C1028093C0021092BF021092BE02909353
:100D2000CA028093C9028EEB92E09093C80280932E
:100D3000C70281E08093BD02209709F460C0AE0134
:100D40004C5F5F4F2396C633D74108F058C0E091FF
:100D5000C202F091C302A2ECB2E006C08081918190
:100D6000009739F0DF01FC01228133812417350718
:100D7000A8F3C2E0EE3BFC0709F441C00D911C91C1
:100D800011970C5F1F4F808191818D939C93C901B6
:100D9000841B950B8930910500F1BF01640F751F0D
:100DA000DB0113969C938E93129753834283129682
:100DB0008D919C911397A2ECB2E001C0DF01ED91FF
:100DC000FC9111972281338128173907B8F3EB0181
:100DD000F983E8836D937C939A018091000290914E
:100DE0000102821B930B90930102809300020E94E8
:100DF000900AC801DF91CF911F910F91089500E0F3
:100E000010E00E94900AC801DF91CF911F910F91CD
:100E10000895CF93DF93009721F1EC0124970E946E
:100E20005D094A815B81A2ECB2E001C0DF01ED9176
:100E3000FC9111972281338124173507B8F3F98388
:100E4000E883CD93DC938091000290910102840F9E
:100E5000951F9093010280930002DF91CF910C9433
:100E6000900ADF91CF910895809100029091010244
:100E7000089508958091331A823018F00E94BC17AB
:100E8000F9CFFFCFCF92DF92EF92FF926B017C01FF
:100E9000E091FE19F091FF19628373838483958337
:100EA0008091071A9091081AA091091AB0910A1A14
:100EB0006091FE197091FF19C816D906EA06FB0663
:100EC00010F180911B1A90911C1A6E5F7F4F0E9447
:100ED00083168091020290910302A0910402B091C6
:100EE0000502C816D906EA06FB0640F4C0920202C3
:100EF000D0920302E0920402F0920502FF90EF907C
:100F0000DF90CF9008958091191A90911A1A6E5F10
:100F10007F4FFF90EF90DF90CF900C9483165F92FD
:100F20006F927F928F929F92AF92BF92CF92DF92F9
:100F3000EF92FF920F931F93CF93DF934C01162FE5
:100F4000572E5A01390189E290E00E947006EC01A7
:100F5000009709F4E9C0C114D10409F4DAC0DC8EA9
:100F6000CB8EC601A50165EA70E00E943D1F21E01D
:100F7000A21AB108CB8CDC8CCA0CDB1CAE01435E20
:100F80005F4FE12FF52D2AE0CF013191DA013D933A
:100F9000AD01DC018C91882311F02150A9F71EA22C
:100FA000102F043008F07DC01A8F1FA318A65E0111
:100FB000B2E0AB0EB11CC5010E945E16CE010E96CA
:100FC0000E945E16DB87CA8784E090E0A0E0B0E074
:100FD000811B9109A109B1098E879F87A88BB98BC5
:100FE000DF8BCE8BA301B401C6010E94EC1699835E
:100FF0008883E114F10419F0F701D183C0830FB69F
:10100000F8940F9280910B1A8F5F80930B1A809146
:10101000FE199091FF19892B09F449C08091051A96
:1010200081110BC0E091FE19F091FF19828D081714
:1010300020F0D093FF19C093FE198091011A8F5FA1
:101040008093011A8A8D9091061A981738F1FBE067
:101050008F9FC0011124B5018D5C954E0E946216D0
:101060000F900FBE8091051A882339F0E091FE1988
:10107000F091FF19828D8017B0F081E0DF91CF9160
:101080001F910F91FF90EF90DF90CF90BF90AF90A6
:101090009F908F907F906F905F9008958093061A35
:1010A000D6CF13E081CF0E94BC1781E0E7CFD09369
:1010B000FF19C093FE1980910B1A813009F0BDCF42
:1010C00083E39AE10E944D168EE39AE10E944D1649
:1010D00089E49AE10E944D1684E59AE10E944D163A
:1010E00088E29AE10E944D168DE19AE10E944D1628
:1010F0008EE09AE10E944D1688E29AE190931C1AC4
:1011000080931B1A8DE19AE190931A1A8093191A11
:1011100094CFC5010E9470069C8F8B8F009709F0B9
:1011200021CFCE010E9409078FEFA8CF0FB6F89408
:101130000F92009729F00F900FBEFC01828D089549
:101140008091FE199091FF190F900FBEFC01828DC6
:101150000895EF92FF921F93CF93DF93EC01262F18
:10116000643008F023E00FB6F8940F92209709F44A
:101170004AC03FA13217A9F18091FE199091FF1941
:101180003217B8F5C817D90741F0E091FE19F09170
:10119000FF1911E0828D281708F410E08A8D3817A6
:1011A00069F12FA34E855F856889798977FD0CC029
:1011B00044E050E060E070E0421B510961097109B0
:1011C0004E875F87688B798B2BE0829FC00111244B
:1011D0008D5C954E2C853D8528173907C9F0113057
:1011E00079F00F900FBEDF91CF911F91FF90EF909C
:1011F000089511E0C817D90781F6D0CF2A8FD1CF33
:101200000E94BC17EECFC091FE19D091FF19B1CF4B
:101210007E0182E0E80EF11CC7010E94C0168A8D93
:101220009091061A981710F48093061A2BE0829F6B
:10123000C0011124B7018D5C954E0E946216CFCF7C
:10124000AF92BF92CF92DF92EF92FF920F93A12CB9
:10125000B12CC12CD12C8CE0E82E8AE1F82E00E0D4
:1012600020E030E044E650E067E672E08AE397E091
:101270000E948F07813041F00F91FF90EF90DF9037
:10128000CF90BF90AF900895F8948093051A109274
:10129000071A1092081A1092091A10920A1A0F913E
:1012A000FF90EF90DF90CF90BF90AF900C9480179D
:1012B000F8941092051A0C94BB178091001A8F5F56
:1012C0008093001A08950FB6F8940F926091071A50
:1012D0007091081A8091091A90910A1A0F900FBE06
:1012E00008956091071A7091081A8091091A9091D7
:1012F0000A1A089580910B1A0895009711F04D96DF
:1013000008958091FE199091FF194D96089580914E
:101310000C1A90910D1A0895AF92BF92CF92DF925E
:10132000EF92FF920F931F93CF93DF938091001A58
:101330008111CFC08091071A9091081AA091091AC3
:10134000B0910A1A0196A11DB11D8093071A9093BE
:10135000081AA093091AB0930A1AC090071AD090DD
:10136000081AE090091AF0900A1AC114D104E10495
:10137000F10439F580911B1A90911C1A2091191AC9
:1013800030911A1A30931C1A20931B1A90931A1A30
:101390008093191A8091021A8F5F8093021AE0914C
:1013A0001B1AF0911C1A808181119AC08FEF9FEF58
:1013B000DC018093020290930302A0930402B09395
:1013C00005028091020290910302A0910402B09163
:1013D0000502B12CC816D906EA06FB0608F457C068
:1013E0009BE0A92EE0911B1AF0911C1A80818823A2
:1013F00009F442C0E0911B1AF0911C1A0780F08595
:10140000E02DC085D1854A815B816C817D81C416C8
:10141000D506E606F70608F47AC08E010E5F1F4F68
:10142000C8010E94C016888D998D892B21F0CE01AC
:101430000E960E94C0168A8D9091061A981710F485
:101440008093061AA89EC0011124B8018D5C954EA8
:101450000E946216E091FE19F091FF199A8D828D1B
:10146000981708F4BFCFBB24B394E0911B1AF091F6
:101470001C1A80818111BECF4FEF5FEFBA014093FC
:101480000202509303026093040270930502E091FC
:10149000FE19F091FF19E28D8BE0E89FF001112415
:1014A000ED5CF54E8081823010F0BB24B3948091C6
:1014B000031A882311F0BB24B3948B2DDF91CF91B5
:1014C0001F910F91FF90EF90DF90CF90BF90AF9062
:1014D00008958091041A8F5F8093041AB12CE7CF8E
:1014E000E0911B1AF0911C1A0780F085E02D008412
:1014F000F185E02D82819381A481B58180930202E0
:1015000090930302A0930402B09305025ACF409334
:101510000202509303026093040270930502B7CF56
:10152000EF92FF920F931F93CF93DF930FB6F89430
:101530000F928091001A81508093001A8091001AB6
:10154000811150C080910B1A882309F44BC02BE005
:10155000F22EEE24E39427C0E091151AF091161AAA
:10156000C085D185CE010E960E94C0168E010E5FF9
:101570001F4FC8010E94C0168A8D9091061A9817B5
:1015800010F48093061AF89EC0011124B8018D5CF6
:10159000954E0E946216E091FE19F091FF199A8D06
:1015A000828D981748F580910E1A8111D5CF8091C0
:1015B000041A882399F08091041A882379F0C1E0F5
:1015C0000E948C098111C093031A8091041A8150E2
:1015D0008093041A8091041A8111F2CF8091031A2A
:1015E000813069F080E00F900FBEDF91CF911F91A5
:1015F0000F91FF90EF900895E092031AD4CF0E94CC
:10160000BC1781E0F0CFCF92DF92EF92FF920F9361
:101610001F93CF93DF9300D000D0CDB7DEB72091DA
:10162000001A2F5F2093001AC090071AD090081A52
:10163000E090091AF0900A1AFC01008111812281C0
:101640003381400F511F621F731FC016D106E2067F
:10165000F306E8F44017510762077307E8F0FC014E
:1016600040835183628373830E94900A811102C078
:101670000E94BC170F900F900F900F90DF91CF91A9
:101680001F910F91FF90EF90DF90CF90089540173A
:1016900051076207730728F0C416D506E606F70659
:1016A000F0F6FC0140835183628373838091FE19BD
:1016B0009091FF19029649835A836B837C830E9421
:1016C000C01649815A816B817C81CB01BA010E948D
:1016D0004207CACFCF92DF92EF92FF926115710558
:1016E0008105910539F40E94BC17FF90EF90DF90BF
:1016F000CF9008952091001A2F5F2093001AC09078
:10170000071AD090081AE090091AF0900A1AC60E2B
:10171000D71EE81EF91E8091FE199091FF190296BE
:101720000E94C016C701B6010E9442070E94900A9B
:101730008823C9F2FF90EF90DF90CF9008958091B9
:10174000001A81113BC01092031AE091061A8BE037
:10175000E89FF0011124ED5CF54E8081811110C0ED
:101760009BE08091061A81508093061AE091061A38
:101770009E9FF0011124ED5CF54E8081882389F352
:10178000E091061A8BE0E89FF0011124ED5CF54E24
:10179000A181B28114960D90BC91A02DB283A1833A
:1017A000CF010396A817B90769F018968D919C91FF
:1017B00019979093FF198093FE19089581E0809303
:1017C000031A089514969C91149715968C91918301
:1017D0008283A92FB82FE9CFCF92DF92EF92FF92A9
:1017E0006A017B016091FE197091FF19625F7F4F62
:1017F0000E9483168091FE199091FF1902960E9413
:10180000C0166091071A7091081A8091091A909178
:101810000A1A6C0D7D1D8E1D9F1DFF90EF90DF90AD
:10182000CF900C944207CF92DF92EF92FF920F93EA
:101830001F9368017901E091FE19F091FF1970681A
:1018400046875787608B718B6091FE197091FF19E5
:10185000625F7F4F0E9462168091FE199091FF197E
:1018600002960E94C0166091071A7091081A809122
:10187000091A90910A1A6C0D7D1D8E1D9F1D1F91D6
:101880000F91FF90EF90DF90CF900C9442070F9351
:101890001F93CF93DF93DC011796ED91FC9118977E
:1018A000C085D1858E01025F1F4FC8010E94C016FE
:1018B0008091001A811124C08E010E5F1F4FC80154
:1018C0000E94C0168A8D9091061A9817F8F0BBE016
:1018D0008B9FC0011124B8018D5C954E0E94621649
:1018E000E091FE19F091FF199A8D828D891788F485
:1018F00081E08093031ADF91CF911F910F9108959A
:10190000B8018EE09AE10E946216EACF8093061A2F
:10191000DECF80E0DF91CF911F910F9108950F935B
:101920001F93CF93DF937068FC01408351836283E0
:101930007383C085D1850E94C0168E010E5F1F4F34
:10194000C8010E94C0168A8D9091061A981710F44B
:101950008093061AFBE08F9FC0011124B8018D5CB3
:10196000954E0E946216E091FE19F091FF199A8D32
:10197000828D891740F481E08093031ADF91CF9123
:101980001F910F91089580E0DF91CF911F910F91EA
:1019900008952091021AFC0120834091071A50916A
:1019A000081A6091091A70910A1A4183528363835D
:1019B000748308958F929F92AF92BF92CF92DF92DD
:1019C000EF92FF920F931F93FC01DB010FB6F89487
:1019D0000F924091071A5091081A6091091A70915C
:1019E0000A1A8091021A9081018112812381348127
:1019F000981729F0401751076207730770F5CD90CB
:101A0000DD90ED90FC9013974A015B01801A910ADA
:101A1000A20AB30A8C149D04AE04BF04F0F4C41AE5
:101A2000D50AE60AF70AC00ED11EE21EF31ECD92B9
:101A3000DD92ED92FC9213978091021A808380913F
:101A4000071A9091081AA091091AB0910A1A818375
:101A50009283A383B48380E001C081E00F900FBE26
:101A60001F910F91FF90EF90DF90CF90BF90AF90BC
:101A70009F908F90089581E08093031A08950097B6
:101A800099F0DC015B96ED91FC915C978081853A41
:101A900081F4319680E090E0DC010196A11DB11D3A
:101AA0002191253AD1F308958091FE199091FF1963
:101AB000E8CF80E008958091FE199091FF19089574
:101AC0000F931F93CF93DF93EC01009781F18A8DE1
:101AD000E091FE19F091FF19928D891740F54E851E
:101AE0005F856889798977FD11C0E091FE19F091D1
:101AF000FF19928D44E050E060E070E0491B51090D
:101B0000610971094E875F87688B798B2BE0829F13
:101B1000C00111248D5C954E2C853D852817390711
:101B200059F0E091FE19F091FF19828D8A8FDF91B3
:101B3000CF911F910F9108958E010E5F1F4FC80125
:101B40000E94C016E091FE19F091FF19828D8A8FD4
:101B50009091061A981710F48093061A2BE0829F32
:101B6000C0011124B8018D5C954EDF91CF911F917A
:101B70000F910C9462160F931F93CF93DF93EC0198
:101B8000009749F088A5815088A72A8D9FA1291721
:101B900011F0882331F080E0DF91CF911F910F91F8
:101BA00008958E010E5F1F4FC8010E94C0168FA1BD
:101BB0008A8F44E050E060E070E0481B5109610901
:101BC00071094E875F87688B798B9091061A9817F9
:101BD00010F48093061A2BE0829FC0011124B801F3
:101BE0008D5C954E0E94621681E0DF91CF911F912E
:101BF0000F910895CF92DF92EF92FF92E091FE193C
:101C0000F091FF196685778580899189E091FE19A9
:101C1000F091FF19A091FE19B091FF195A962C91DD
:101C200034E0C32ED12CE12CF12CC21AD108E108EA
:101C3000F108C686D786E08AF18AFF90EF90DF90A0
:101C4000CF9008958091FE199091FF19892B39F05A
:101C5000E091FE19F091FF1980A58F5F80A7809118
:101C6000FE199091FF190895EF92FF920F931F9321
:101C7000CF93DF9300D0CDB7DEB77C0180E792E051
:101C8000F7019183808361157105C1F0FB0101901B
:101C90000020E9F73197E61BED3020F50E2F10E01C
:101CA000C801019669837A830E940213F701958324
:101CB0008483A80169817A810E94441F80915F1A00
:101CC0009091601AF70197838683F092601AE092F0
:101CD0005F1A0F900F90DF91CF911F910F91FF909E
:101CE000EF900895ECE0DACF0F931F93CF93DF933B
:101CF000EC0180915F1A9091601A6BE0892B49F199
:101D0000CE010E9477138C0163E473E00E943213CA
:101D100066E0C8010E9477136BE0CE010E94771342
:101D20008C0160E273E00E94321366E0C8010E94F9
:101D3000771380915F1A9091601ADC01ED91FC910C
:101D40000190F081E02DBE01DF91CF911F910F91A5
:101D50000994CE010E947713EC0162E073E00E94C7
:101D6000321366E0CE01DF91CF911F910F910C9459
:101D700077134F925F926F927F928F929F92AF9262
:101D8000BF92CF92DF92EF92FF920F931F93CF9368
:101D9000DF93EC013B0149012801FC0186E792E059
:101DA00081939193A12CB12CC12CD12C7F01042FB4
:101DB0009E01A40187E79DE10E948F075F824E820A
:101DC000998688862091611A3091621A3D832C830E
:101DD000D093621AC093611A1C861D8680906F1A78
:101DE0009090701A9FEF891A990A9092701A8092B7
:101DF0006F1A9B868A861E861F86188A198A411446
:101E0000510409F44CC06BE0813041F1C2010E94E1
:101E10007713EC0166E673E00E943213B301CE0142
:101E20000E943213E881F9810280F381E02D62E2A1
:101E3000CE01099566E0CE01DF91CF911F910F9100
:101E4000FF90EF90DF90CF90BF90AF909F908F90DA
:101E50007F906F905F904F900C947713C2010E9417
:101E60007713EC016CE773E00E943213B301CE01EB
:101E70000E9432136BE0CE010E947713EC0163E8FD
:101E800073E00E94321363E0CE010E947713B40125
:101E90000E94BC1362E00E94771366E0CDCFDF9111
:101EA000CF911F910F91FF90EF90DF90CF90BF9057
:101EB000AF909F908F907F906F905F904F9008951C
:101EC000EC01E881F9810190F081E02D09951B82F8
:101ED0001A826FEF7FEFCB010E946A0BFACFFC01F1
:101EE000648765870895FC01C681D781209739F002
:101EF000CE010E94321366E0CE010E9477132BE0E0
:101F000088E190E00FB6F894A895809360000FBE2A
:101F100020936000FFCF0E9463090E94A61E20E06C
:101F200030E04AE754E40E943E1E0895CF92DF92CB
:101F3000EF92FF920F931F93CF93DF93EC017B01FE
:101F40008A819B810E947D096C016BE0C7010E9420
:101F500077138C016AE973E00E943213B601C8015D
:101F60000E94321366E0C8010E9477138A859B8520
:101F700028853985A701BC01821B930B0E947B1227
:101F80000C80DD81C02D2097D9F6DF91CF911F9174
:101F90000F91FF90EF90DF90CF9008950F931F93D4
:101FA000CF93DF93EC018091611A9091621A0097B0
:101FB00019F0BE010E94960F6BE0CE010E947713CC
:101FC0008C0161EA73E00E94321366E0C8010E944E
:101FD000771380916F1A9091701ABC016F5F7F4FD9
:101FE000AE0183569109DF91CF911F910F910C940F
:101FF0007B128F929F92AF92BF92CF92DF92EF921D
:10200000FF920F931F93CF93DF93EC018B018A8193
:102010009B810E947D09BC01C8010E943213D80136
:10202000ED91FC910280F381E02D69E0C8010995F2
:102030008A819B810E947D09FC0101900020E9F7C3
:102040003197E81BF90B389748F4D801ED91FC91D2
:102050000280F381E02D69E0C8010995CE84DF8418
:10206000E888F988A884B9848A819B810E943F0D01
:10207000982E8C848A819B810E949608682FC801C3
:102080000E943E146BE00E947713EC0165E174E05E
:102090000E943213682DCE010E943E146BE00E9414
:1020A0007713EC0167E174E00E943213692DCE01D1
:1020B0000E943E146BE00E947713EC0169E174E02A
:1020C0000E943213B501CE010E94BC136BE00E9446
:1020D0007713EC016BE174E00E9432136BE0CE01E8
:1020E0000E947713EC016DE174E00E943213B70196
:1020F000A601CE01DF91CF911F910F91FF90EF903C
:10210000DF90CF90BF90AF909F908F900C94F6137C
:102110000F931F93CF93DF93EC018B01E881F9813B
:102120000280F381E02DB801CE01099566E0C80177
:102130000E9477130C80DD81C02D209779F7DF9105
:10214000CF911F910F910895CF93DF93EC01CB01B5
:10215000DB01ED91FC910280F381E02DBE01099538
:10216000CE01DF91CF9108950F931F93CF93DF930B
:10217000EC016BE00E9477138C0163E074E00E9435
:1021800032136BE0C8010E9477138C016EE074E09B
:102190000E94321366E0C8010E9477136BE0CE0103
:1021A0000E9477138C0160EE73E00E9432136BE0A3
:1021B000C8010E9477138C0161EF73E00E94321313
:1021C0006BE0C8010E9477138C016DEF73E00E94F1
:1021D000321366E0C8010E9477136BE0CE010E94C3
:1021E00077138C016DEB73E00E9432136BE0C80132
:1021F0000E9477138C016EEC73E00E9432136BE047
:10220000C8010E9477138C016AED73E00E943213BB
:1022100066E0C8010E9477138091611A9091621A5A
:10222000009719F0BE010E9488100E9487090E9441
:102230003F0D182F6BE0CE010E947713EC016CEA82
:1022400073E00E943213612FCE010E943E146BE0B6
:102250000E947713EC0167EB73E00E94321364E68F
:1022600070E0CE010E94BC136BE00E947713EC017A
:1022700069EB73E00E94321366E0CE01DF91CF91EB
:102280001F910F910C947713CF92DF92EF92FF92F0
:102290000F931F93CF93DF937C018B01DC011A9680
:1022A0006D917C911B97C8010E943213F701A285A2
:1022B000B385FD0101900020E9F73197DE2EDA1A8F
:1022C000FFE0FD1580F0C0E0D0E0D801ED91FC9179
:1022D0000280F381E02D60E2C801099521968C2FE0
:1022E0008D0D803190F36AE772E0C8010E943213CD
:1022F000D7015696CD90DC9057971E968D919C9164
:102300001F970E94151C682FC8010E943E14EC0103
:10231000E881F9810280F381E02D6FE20995B60131
:10232000CE010E94BC13DC01ED91FC910280F3818F
:10233000E02D69E0099566E0C8010E947713F70176
:1023400084859585009781F0DC01ED91FC910190E9
:10235000F081E02DB801DF91CF911F910F91FF9097
:10236000EF90DF90CF900994DF91CF911F910F9163
:10237000FF90EF90DF90CF9008956F927F928F92B1
:102380009F92AF92BF92CF92DF92EF92FF920F9304
:102390001F93CF93DF93EC01762E672E4A015901EC
:1023A000670178010E942713B401CE0106960E94AE
:1023B000340E85E892E09983888327E932E03F83F1
:1023C0002E83BD8AAC8A40E061E0872D0E94861989
:1023D0009F878E87C88AD98AEA8AFB8A7E8A6F8A13
:1023E000DF91CF911F910F91FF90EF90DF90CF90F1
:1023F000BF90AF909F908F907F906F9008950697B9
:102400000C944411CF92DF92EF92FF920F931F939F
:10241000CF93DF93CDB7DEB72F970FB6F894DEBF1B
:102420000FBECDBF8C017B01DB016D917D918D9144
:102430009C9128EE33E040E050E00E94E81DBA0194
:10244000A901C8010E94F613D801ED91FC91028008
:10245000F381E02D6EE2C8010995C7010E943E1C80
:102460006E01B9E0CB0ED11C7E01EFE0EE0EF11C47
:102470002AE030E040E050E00E940A1EE62F298367
:102480003A834B835C8369817A818B819C81E05D97
:10249000D701EE937D01AC15BD0551F71F86BD0137
:1024A000C8010E943213C8012F960FB6F894DEBF00
:1024B0000FBECDBFDF91CF911F910F91FF90EF9095
:1024C000DF90CF900895CF93DF93EC010FB6F8948F
:1024D0000F9280912401909125019D838C830E940D
:1024E0006309688379838A839B830F900FBECE0133
:1024F000DF91CF9108958F929F92AF92BF92CF922A
:10250000DF92EF92FF920F931F93CF93DF936C01B3
:102510004B01EA0163E0CA010E947713C814D90491
:1025200008F059C0560184E1A80EB11C7501B6012E
:10253000CE010E94BC136BE00E9477136FE174E040
:102540000E9432138601F80161918F01CE010E9431
:102550003E14E881F9810280F381E02D60E2CE0132
:1025600009950E151F0579F7E881F9810280F3813D
:10257000E02D60E2CE0109950FC080EE860FE88164
:10258000F9810280F381E02D8F3508F06EE2CE01F3
:102590000995CE14DF0481F0F60161916F01653A6F
:1025A00061F7E881F9810280F381E02D60E2CE01DC
:1025B0000995CE14DF0481F7650166E0CE010E9423
:1025C0007713F4E1EF0EF11CA814B90420F4C5014F
:1025D00044965C01ACCF62E0CE01DF91CF911F91B8
:1025E0000F91FF90EF90DF90CF90BF90AF909F90B2
:1025F0008F900C9477130C947006009711F00C9444
:10260000090708950C947006009711F00C940907BF
:102610000895FC0181E090E02081222311F080E008
:1026200090E0089521E0FC01208308950895089525
:1026300081E0089580E0089580E008950895DC0128
:10264000ED91FC910280F381E02D6CE00994FC0196
:102650008DE992E0918380838AE0828383E08583A1
:10266000148208950F931F93CF93DF93EC01FB0126
:102670008C81811117C06081662379F08F010F5F13
:102680001F4FE881F9810280F381E02DCE01099589
:10269000F80161918F016111F4CFDF91CF911F910A
:1026A0000F9108951C828B010F5F1F4F6491662369
:1026B000A1F3A881B9811296ED91FC911397CE01F7
:1026C0000995F80164910F5F1F4F6111F2CFE5CFBB
:1026D000883008F087E08093070289E008959EEF34
:1026E000980F9F3010F4809306028AE00895CF93EC
:1026F000DF93EC01462F50E04C30510538F4FA01DD
:10270000EA59FF4F0C94291E82E08A83CE01DF91A3
:10271000CF91089581E08C83F9CF88E08A83F6CF4A
:102720008AE08A83F3CF80E18A83F0CFE881F98160
:102730000280F381E02D6DE00995E881F981028046
:10274000F381E02D6AE0CE010995E0CFE881F981BF
:102750000284F385E02D0995D9CFE881F9810084C1
:10276000F185E02D0995D2CF809107028D83CECFE0
:10277000809106028A83CACFFF920F931F93CF9353
:10278000DF93CDB7DEB761970FB6F894DEBF0FBE0B
:10279000CDBF8C01F62E972FF8014281403191F088
:1027A000483081F0423071F050E0BE016F5F7F4FE2
:1027B0008F2D0E94781FBE016F5F7F4FC8010E945E
:1027C000321307C0692FC8010E943E146F2D0E946A
:1027D0003E14C80161960FB6F894DEBF0FBECDBFA0
:1027E000DF91CF911F910F91FF900895DF92EF92AB
:1027F000FF920F931F93CF93DF93CDB7DEB7A197CF
:102800000FB6F894DEBF0FBECDBF8C01D42EE52EDF
:10281000F62E972FF80122812031A1F0283091F077
:10282000223081F030E0AE014F5F5F4F6D2D7E2D85
:102830008F2D0E94531FBE016F5F7F4FC8010E9402
:1028400032130DC0692FC8010E943E146F2D0E94E3
:102850003E146E2D0E943E146D2D0E943E14C80140
:10286000A1960FB6F894DEBF0FBECDBFDF91CF911A
:102870001F910F91FF90EF90DF900895CF92DF921C
:10288000EF92FF920F931F93CF93DF93CDB7DEB7F5
:1028900029970FB6F894DEBF0FBECDBF8C01D62EA0
:1028A000DC0113968C91139781115DC0F801428170
:1028B0004230D9F14031F1F050E0BE016F5F7F4FFF
:1028C0008D2D90E00E94781FBE016F5F7F4FC80181
:1028D0000E943213C80129960FB6F894DEBF0FBECE
:1028E000CDBFDF91CF911F910F91FF90EF90DF90BF
:1028F000CF90089562956F700190F081E02D028075
:10290000F381E02D6A30B8F5605DC80109956D2D41
:102910006F70D801ED91FC910280F381E02D6A3057
:1029200060F1695CC8010995D5CF88E0E82EF12CEB
:1029300090E8C92E0AC061E3C8010995C694B1E0C8
:10294000EB1AF108E114F10429F28C2D8D21D80144
:10295000ED91FC910280F381E02D8111ECCF60E3D9
:10296000C8010995EBCFED91FC910280F381E02D38
:10297000C8010995AFCF695CC8CF605DD3CFDC01DA
:102980001896ED91FC91199780811C969C911C974B
:10299000892359F421E23EE405C021503109211573
:1029A000310571F080818923C1F380811E969C914D
:1029B0001E97892B80831696ED91FC911797608363
:1029C0000895FC01878581111DC020916B1A3091FB
:1029D0006C1A8091691A90916A1A2817390789F040
:1029E000E0916D1AF0916E1AE20FF31F80812F5F54
:1029F0003F4F2032310518F110926C1A10926B1A69
:102A00000895FFCF2091651A3091661A8091631A5C
:102A10009091641A2817390789F0E091671AF091AC
:102A2000681AE20FF31F80812F5F3F4F203231057C
:102A300058F01092661A1092651A0895FFCF3093DD
:102A40006C1A20936B1A08953093661A2093651AB6
:102A50000895DC01ED91FC910280F381E02D6CE0A2
:102A60000994FC018785882369F081E04091651A0B
:102A70005091661A2091631A3091641A42175307D5
:102A800069F0089581E040916B1A50916C1A209181
:102A9000691A30916A1A4217530799F780E008952E
:102AA000EF92FF921F93CF93DF9300D0CDB7DEB7A5
:102AB0007C01142F69837A830E942713412F698137
:102AC0007A81C70106960E947C1C8DEA92E0F7018C
:102AD0009183808317871123E9F08091C900806872
:102AE0008093C90080E290E00E9402139093681ADC
:102AF0008093671A1092661A1092651A1092641ADF
:102B00001092631A0F900F90DF91CF911F91FF9059
:102B1000EF9008958091C10080688093C10080E2A9
:102B200090E00E94021390936E1A80936D1A109297
:102B30006C1A10926B1A10926A1A1092691A0F90FE
:102B40000F90DF91CF911F91FF90EF9008951F920A
:102B50000F920FB60F9211240BB60F922F933F9343
:102B60008F939F93EF93FF932091C600E0916D1A8E
:102B7000F0916E1A8091691A90916A1AE80FF91F04
:102B800020838091691A90916A1A0196803291058A
:102B9000C0F490936A1A8093691A20916B1A30914D
:102BA0006C1A28173907D1F0FF91EF919F918F91FF
:102BB0003F912F910F900BBE0F900FBE0F901F9063
:102BC000189510926A1A1092691A80E090E020918C
:102BD0006B1A30916C1A2817390731F701969093C8
:102BE0006C1A80936B1A8097F8F210926C1A1092FC
:102BF0006B1ADACF1F920F920FB60F9211240BB6F9
:102C00000F922F933F938F939F93EF93FF93209176
:102C1000CE00E091671AF091681A8091631A909142
:102C2000641AE80FF91F20838091631A9091641A47
:102C3000019680329105C0F49093641A8093631AD0
:102C40002091651A3091661A28173907D1F0FF9143
:102C5000EF919F918F913F912F910F900BBE0F900D
:102C60000FBE0F901F9018951092641A1092631A5D
:102C700080E090E02091651A3091661A2817390794
:102C800031F701969093661A8093651A8097F8F24F
:102C90001092661A1092651ADACFFC01039692839D
:102CA00081834FEF5FEFBA0143835483658376835B
:102CB000908787839287818710820895FC0113860D
:102CC00012860895CF93DF939C01FB01DC011196DE
:102CD000CD91DC911297D583C4838E819F81978398
:102CE00086838E819F81DC0115967C936E93149769
:102CF0007F836E8333872287F90180818F5F808392
:102D0000DF91CF9108950F931F93CF93DF93EB0142
:102D1000088119812A813B810F3F4FEF1407240757
:102D2000340731F1DC01139601C0DF011496ED91F7
:102D3000FC911597408151816281738104171507B9
:102D40002607370790F7FD83EC83D783C683BF83BD
:102D5000AE831596DC93CE9314979B878A87FC01EC
:102D600020812F5F2083DF91CF911F910F910895D4
:102D7000FC01A185B2851496ED91FC911597E3CFE6
:102D8000CF93DF93FC01A285B385248135818681B1
:102D90009781E9019F838E8386819781EC013D8332
:102DA0002C8311962D913C9112972E173F0741F0DD
:102DB000138612868C9181508C93DF91CF91089568
:102DC00012969C938E931197138612868C91815044
:102DD0008C93DF91CF9108959093701A80936F1A1E
:102DE00031E1FC013083319722E22083FC013297EC
:102DF000A3E3A083FC0133976083FC0134977083C5
:102E0000FC0135971082FC01369760E86083FC0175
:102E100037971082FC01389762E06083FC01399794
:102E200063E06083FC013A9764E06083FC013B97B8
:102E300065E06083FC013C9766E06083FC013D97A0
:102E400067E06083FC013E9768E06083FC013F9788
:102E500069E06083FC01709760E16083FC01719719
:102E60003083FC01729732E13083FC01739733E1C8
:102E70003083FC01749734E13083FC01759735E1B0
:102E80003083FC01769736E13083FC01779737E198
:102E90003083FC01789738E13083FC01799739E180
:102EA0003083FC017A9730E23083FC017B9731E27A
:102EB0003083FC017C972083FC017D9723E22083F3
:102EC000FC017E974083FC017F975083FC01B09703
:102ED00026E22083FC01B19727E22083FC01B29710
:102EE00028E22083FC01B39729E22083FC01B497F8
:102EF00020E32083FC01B59721E320838697089582
:102F000087E0809329018FEC809328018AE08093E9
:102F10002101E3E7F0E0808182608083A091FE19C7
:102F2000B091FF19CD91CDBFDD91DEBFFF91EF9143
:102F3000DF91CF91BF91AF919F918F917F916F91D1
:102F40005F914F913F912F911F910F91FF90EF90C3
:102F5000DF90CF90BF90AF909F908F907F906F90B9
:102F60005F904F903F902F901F900F900FBE0F904B
:102F7000089581E0089508950F920FB6F8940F9286
:102F80001F9211242F923F924F925F926F927F92E5
:102F90008F929F92AF92BF92CF92DF92EF92FF9269
:102FA0000F931F932F933F934F935F936F937F9351
:102FB0008F939F93AF93BF93CF93DF93EF93FF9341
:102FC000A091FE19B091FF190DB60D920EB60D929B
:102FD0000E949F0BA091FE19B091FF19CD91CDBF1A
:102FE000DD91DEBFFF91EF91DF91CF91BF91AF9166
:102FF0009F918F917F916F915F914F913F912F9111
:103000001F910F91FF90EF90DF90CF90BF90AF9006
:103010009F908F907F906F905F904F903F902F90F8
:103020001F900F900FBE0F9008950F920FB6F89457
:103030000F921F9211242F923F924F925F926F92A4
:103040007F928F929F92AF92BF92CF92DF92EF9238
:10305000FF920F931F932F933F934F935F936F9321
:103060007F938F939F93AF93BF93CF93DF93EF9310
:10307000FF93A091FE19B091FF190DB60D920EB6F7
:103080000D920E948C0981110E949F0BA091FE1944
:10309000B091FF19CD91CDBFDD91DEBFFF91EF91D2
:1030A000DF91CF91BF91AF919F918F917F916F9160
:1030B0005F914F913F912F911F910F91FF90EF9052
:1030C000DF90CF90BF90AF909F908F907F906F9048
:1030D0005F904F903F902F901F900F900FBE0F90DA
:1030E00008950E94151818951F93CF93DF93EC0154
:1030F000142F88A181110DC088819981892B09F431
:103100004DC080E09E8D9F5F9E8FDF91CF911F917C
:103110000895482F50E011111CC08C819D810E94A0
:10312000341F28A18C819D81820F911D9D838C83EA
:103130002A813B818217930720F3888199819D839F
:103140008C8380E09E8D9F5F9E8FDF91CF911F913A
:1031500008958E819F810E94341F28A130E031950F
:10316000219531098E819F81820F931F9F838E83CA
:10317000688179818617970730F48A819B81820F55
:10318000931F9F838E83123009F0BBCF8E8D8823CF
:1031900009F4B7CF8E8D81508E8FB3CF8A819B81FA
:1031A0000E94BB0D1B821A82ADCFFC01CB0140A156
:1031B000442399F050E026813781240F351F37834F
:1031C0002683628173812617370720F020813181A1
:1031D00037832683B9010C94341F08950F931F93EE
:1031E000CF93DF93EC010FB6F8940F928AA11816D3
:1031F000ECF48B898823D1F08E010D5E1F4F09C03E
:103200008AA181508AA38AA1181684F48B89882305
:1032100069F0C8010E94470C882391F30E943B0D7E
:103220008AA181508AA38AA1181684F38FEF8AA3FA
:103230000F900FBE0FB6F8940F9289A11816ECF4F8
:1032400088858823D1F08E01085F1F4F09C089A1AE
:10325000815089A389A1181684F48885882369F090
:10326000C8010E94470C882391F30E943B0D89A15D
:10327000815089A389A1181684F38FEF89A30F9039
:103280000FBEDF91CF911F910F910895CF93DF93E0
:10329000EC010FB6F8940F92288139818F8D78A1B7
:1032A000879FC0011124A901480F591F5B834A83DE
:1032B0001E8E3D832C83871B9109820F931F9F8352
:1032C0008E838FEF89A38AA3611112C08885811133
:1032D00006C00F900FBE81E0DF91CF910895CE011F
:1032E00008960E94470C8130A1F70E94BC17F1CFCD
:1032F000CE0108960E944D16CE0143960E944D16AF
:103300000F900FBE81E0DF91CF9108950F931F932F
:10331000CF93DF93182F062F882301F183E290E0EB
:103320000E947006EC010097C9F0109FC0011124A3
:1033300001960E94700699838883892B61F01F8F04
:1033400008A361E0CE010E944619CE01DF91CF9122
:103350001F910F910895CE010E940907C0E0D0E0AF
:10336000CE01DF91CF911F910F9108956F927F92BF
:103370008F929F92AF92BF92CF92DF92EF92FF9285
:103380000F93CF93DF93CDB7DEB729970FB6F8949D
:10339000DEBF0FBECDBF5C014B012E833F8348874C
:1033A000598720E03C0188E0680E711C0FB6F89444
:1033B0000F92F501968D878D981708F459C0023049
:1033C00009F456C0CE80DF80E884F984CD28CE2869
:1033D000CF2809F46FC0222309F441C00F900FBE1B
:1033E0000E945D090FB6F8940F92F50181A18F3FFD
:1033F00009F43CC0F50182A18F3FB1F10F900FBEDF
:10340000BE016A5F7F4FCE0101960E94DA0C8111E6
:1034100055C00FB6F8940F92F501968D0F900FBE20
:10342000F501878D981314C04E815F816885798579
:10343000C3010E94EC0BC5010E94EE180E94900A85
:10344000882311F021E0B2CF0E94BC1721E0AECF5B
:10345000C5010E94EE180E94900A21E0A7CFCE017C
:1034600001960E94C90CBACF12A2C8CF11A2C2CF36
:10347000402FB401C5010E947418F5019389911180
:1034800024C0811128C00F900FBE81E029960FB68D
:10349000F894DEBF0FBECDBFDF91CF910F91FF90AB
:1034A000EF90DF90CF90BF90AF909F908F907F90E4
:1034B0006F9008950F900FBE80E0E8CFC5010E9485
:1034C000EE180E94900A80E0E1CFC50143960E9469
:1034D000470C8130C1F60E94BC17D5CF0F93CF9314
:1034E000DF9383E290E00E947006EC01009701F107
:1034F0001B821A82198218821D821C821F821E82E0
:103500001E8E81E08F8F18A28FEF89A38AA3CE0130
:1035100008960E944D16CE0143960E944D1600E07B
:1035200020E030E0A90160E070E0CE010E94B61911
:10353000CE01DF91CF910F9108950F931F93CF93F9
:10354000DF93EC018A019E8D8F8D981740F0223019
:1035500031F080E0DF91CF911F910F910895422FBC
:10356000CE010E947418882331F00115110519F05D
:1035700081E0F80180838AA18F3F49F08AA18F5FA3
:103580008AA381E0DF91CF911F910F9108958B89DC
:103590008823B9F3CE0143960E94470C882389F310
:1035A0000115110571F381E0F8018083D3CFAF924B
:1035B000BF92CF92DF92EF92FF920F93CF93DF9360
:1035C000CDB7DEB729970FB6F894DEBF0FBECDBFDB
:1035D0007C016B012E833F834887598790E0570118
:1035E00083E1A80EB11C0FB6F8940F92F701868DF7
:1035F000811169C04E815F8168857985452B462B95
:10360000472B09F47DC0992309F43EC00F900FBEEB
:103610000E945D090FB6F8940F92F70181A18F3FC8
:1036200009F43EC0F70182A18F3F09F43FC00F901B
:103630000FBEBE016A5F7F4FCE0101960E94DA0C79
:10364000811171C00FB6F8940F92F701868D0F901B
:103650000FBE81111EC0F70180819181892B41F13C
:103660004E815F8168857985C5010E94EC0BC70199
:103670000E94EE180E94900A882311F091E0B3CFC7
:103680000E94BC1791E0AFCFCE0101960E94C90CF9
:10369000BDCFC7010E94EE180E94900A91E0A3CF0F
:1036A00011A2F70182A18F3F09F0C1CF12A2BFCFB3
:1036B0000FB6F8940F92F701828193810E94600DFA
:1036C0000F900FBECDCFA680B780B601C7010E9474
:1036D000D518F70101112EC0868D8150868F80810B
:1036E0009181892BB9F1F7018085882341F1C701C8
:1036F00008960E94470C813011F50E94BC171FC02C
:103700000F900FBE80E029960FB6F894DEBF0FBE73
:10371000CDBFDF91CF910F91FF90EF90DF90CF90D1
:10372000BF90AF900895C7010E94EE180E94900AC2
:1037300080E0E9CFB782A6828389811104C00F900F
:103740000FBE81E0E0CFC70143960E94470C88235B
:10375000B1F3D3CF0E94220EF70193838283C3CFAC
:103760000F931F93CF93DF9300D0CDB7DEB78C01BB
:10377000FC01868D811108C080E00F900F90DF91D1
:10378000CF911F910F910895C80149835A830E94D8
:10379000D518F801868D8150868F81A149815A8183
:1037A0008F3F61F0F80181A18F5F81A381E00F90CD
:1037B0000F90DF91CF911F910F91089580858823FD
:1037C000A9F3C801089649835A830E94470C49818E
:1037D0005A81882359F34115510541F381E0FA01DB
:1037E0008083CBCF0F931F93CF93DF93EC018E8D0C
:1037F000811106C080E0DF91CF911F910F91089554
:103800000E811F81CE010E94D5181F830E8381E097
:10381000DF91CF911F910F9108950FB6F8940F92F9
:10382000FC01868D0F900FBE08950FB6F8940F928D
:10383000FC01268D0F900FBEFC01878D821B089521
:10384000FC01868D0895CF93DF93EC0188819981E7
:10385000009711F00E940907CE01DF91CF910C94DF
:103860000907FC01968D81E0911180E00895FC012B
:10387000268D81E0978D291380E00895CF92DF9205
:10388000EF92FF92CF93DF93EC01688179818A8177
:103890009B8128EEC22E23E0D22EE12CF12CA70131
:1038A00096010E94E81D9B01AC0160E472E48FE088
:1038B00090E00E94C41DA70196010E94E81D6901C5
:1038C0007A01AC81BD8120E432E44FE050E00E94F7
:1038D000B91D20E834E84EE150E00E94E81DC20E18
:1038E000D31EE41EF51EC701B601DF91CF91FF90F4
:1038F000EF90DF90CF900895CF93DF93EC014423B6
:1039000009F441C08EEC90E09983888388EC90E0C4
:103910009B838A8389EC90E09D838C8388E18093EC
:10392000C90086E08093CA001092CD009B0140E060
:1039300050E0220F331F441F551F220F331F441F17
:10394000551F220F331F441F551F220F331F441FC3
:10395000551F60E074E284EF90E00E94E81D209320
:10396000CC008091C80081608093C80080E28E8383
:1039700080E88F8380E48887E881F9818081808175
:10398000DF91CF91089586EC90E09983888380EC55
:1039900090E09B838A8381EC90E09D838C8388E117
:1039A0008093C10086E08093C2001092C5009B0105
:1039B00040E050E0220F331F441F551F220F331FDA
:1039C000441F551F220F331F441F551F220F331F43
:1039D000441F551F60E074E284EF90E00E94E81DF0
:1039E0002093C4008091C00081608093C000BECF4E
:1039F000DC011296ED91FC911397208116968C9123
:103A0000282381E009F480E00895DC011296ED910D
:103A1000FC911397208118968C91282381E009F05E
:103A200080E00895CF92DF92EF92FF920F931F9361
:103A3000CF93DF9314BE88E10FB6F89480936000B3
:103A4000109260000FBE80E190E00E94FB12EC013A
:103A500041E060E875E20E94501567E0CE010E94E7
:103A600077136BE00E9477136C0164EE70E00E94A4
:103A7000321366E0C6010E94771388E190E00E944D
:103A8000FB126C011AE0E12EF12C00E010E09E0127
:103A900048E052E060E270E0C6010E94BD11D092A1
:103AA000BB02C092BA0282E190E00E94FB128E013A
:103AB00024E031E041E06EE072E00E94320282E1F7
:103AC00090E00E94FB1228E131E042E066E172E002
:103AD0000E94AC050E94200980E090E0DF91CF9128
:103AE0001F910F91FF90EF90DF90CF9008950E946B
:103AF000600F0F93CF93DF931F92CDB7DEB769832B
:103B0000FC01208931894289538900E0BE016F5F41
:103B10007F4F868597850E94B6190F90DF91CF91D0
:103B20000F910895FC01868597850E940D1C91E0F8
:103B3000811101C090E0892F08950F93CF93DF93F7
:103B40001F92CDB7DEB700E02FEF3FEFA901BE0116
:103B50006F5F7F4FFC01868597850E94D71A813061
:103B600031F489810F90DF91CF910F9108958FEFFC
:103B7000F9CF0E942F1EA59F900DB49F900DA49F7A
:103B8000800D911D11240895DB018F939F930E9456
:103B9000B91DBF91AF91A29F800D911DA39F900D64
:103BA000B29F900D11240895AA1BBB1B51E107C0C1
:103BB000AA1FBB1FA617B70710F0A61BB70B881FBD
:103BC000991F5A95A9F780959095BC01CD0108954C
:103BD000A1E21A2EAA1BBB1BFD010DC0AA1FBB1F11
:103BE000EE1FFF1FA217B307E407F50720F0A21B83
:103BF000B30BE40BF50B661F771F881F991F1A94F0
:103C000069F760957095809590959B01AC01BD0119
:103C1000CF010895052E97FB1EF400940E94211EEB
:103C200057FD07D00E94E81D07FC03D04EF40C940A
:103C3000211E50954095309521953F4F4F4F5F4F36
:103C4000089590958095709561957F4F8F4F9F4F08
:103C50000895EE0FFF1F0590F491E02D0994A29FA7
:103C6000B001B39FC001A39F700D811D1124911D50
:103C7000B29F700D811D1124911D08950CD0BAC002
:103C8000B2D040F0A9D030F021F45F3F19F09BC0D2
:103C90005111E4C09EC0BFD098F39923C9F35523B6
:103CA000B1F3951B550BBB27AA276217730784072F
:103CB00038F09F5F5F4F220F331F441FAA1FA9F3E5
:103CC00033D00E2E3AF0E0E830D091505040E695D7
:103CD000001CCAF729D0FE2F27D0660F771F881F38
:103CE000BB1F261737074807AB07B0E809F0BB0B27
:103CF000802DBF01FF2793585F4F2AF09E3F51054B
:103D000068F061C0ABC05F3FECF3983EDCF3869592
:103D100077956795B795F7959F5FC9F7880F911DC0
:103D20009695879597F90895E1E0660F771F881FAC
:103D3000BB1F621773078407BA0720F0621B730B5F
:103D4000840BBA0BEE1F88F7E0950895E89409C03C
:103D500097FB3EF490958095709561957F4F8F4FBE
:103D60009F4F9923A9F0F92F96E9BB279395F695D4
:103D7000879577956795B795F111F8CFFAF4BB0F52
:103D800011F460FF1BC06F5F7F4F8F4F9F4F16C0B6
:103D9000882311F096E911C0772321F09EE8872F40
:103DA000762F05C0662371F096E8862F70E060E0FC
:103DB0002AF09A95660F771F881FDAF7880F969575
:103DC000879597F9089597F99F6780E870E060E01C
:103DD00008959FEF80EC089500240A9416161706A4
:103DE00018060906089500240A94121613061406EC
:103DF00005060895092E0394000C11F4882352F04F
:103E0000BB0F40F4BF2B11F460FF04C06F5F7F4F06
:103E10008F4F9F4F089557FD9058440F551F59F0ED
:103E20005F3F71F04795880F97FB991F61F09F3FA7
:103E300079F087950895121613061406551FF2CFD0
:103E40004695F1DF08C0161617061806991FF1CF20
:103E500086957105610508940895E894BB27662747
:103E60007727CB0197F90895FB01DC0102C001908F
:103E70000D9241505040D8F70895DC0101C06D9378
:103E800041505040E0F70895FB01DC0141505040A3
:103E900048F001900D920020C9F701C01D924150D9
:103EA0005040E0F70895FA01CF93FF93EF9322304B
:103EB000CCF02532BCF4C22F2C2F332744275527B2
:103EC000FF93EF930E94E81DEF91FF91605D6A33CD
:103ED0000CF0695D6193B901CA0160507040804087
:103EE000904051F710828F919F91CF910C948E1F2B
:103EF000FB019F01423074F0453264F4642F772750
:103F00000E94D41D805D8A330CF0895D8193CB01C2
:103F10000097A1F71082C9010C948E1FDC01FC01EF
:103F2000672F71917723E1F7329704C07C916D93ED
:103F300070836291AE17BF07C8F30895F894FFCF5E
:103F40003717FFFFFFFF0A035072696E7400557345
:103F50006572496E7400427269676874002F000DC3
:103F600000000000005C03F90F436820303A004372
:103F70006820313A00000000001C05F90F412F4471
:103F800020636F6E7374727563746F72204F4B0091
:103F900073616D706C65206F766572666C6F7720EB
:103FA0006361756768740049444C45000000000077
:103FB0001713000000001713F90F7478745F71096C
:103FC00000000000001813791D921D9D1D1E131F77
:103FD000134411FAFF0000FF11000000001813172E
:103FE000131C131A131E131F13000000001813BF15
:0A3FF000143115E1141E1329150009
:00000001FF
